S00C00006C6162382E73726563B1
S11300000C9462010C9488010C9488010C9488016E
S11300100C9488010C9488010C9488010C94880138
S11300200C9488010C9488010C9488010C94880128
S11300300C9488010C9488010C9488010C94880118
S11300400C9488010C9488010C9488010C94880108
S11300500C9480020C9488010C9488010C948801FF
S11300600C9488010C9488010C9488010C948801E8
S11300700C9488010C9488010C9488010C948801D8
S11300800C9488010C9488010C9488010C948801C8
S11300900C9488010C9488010C9488010C948801B8
S11300A00C9488010C9488010C9488010C948801A8
S11300B00C9488010C9488010C9488010C94880198
S11300C00C9488010C9488010C9488010C94880188
S11300D00C9488010C9488010C9488010C94880178
S11300E00C9488010C9488010C9488010C94880168
S11300F00C9488010C9488010C9488010C94880158
S11301000C9488010C9488010C9488010C94880147
S11301100C9488010C9488010C9488010C94880137
S11301200C9488010C9488010C9488010C94880127
S11301300C9488010C9488010C9488010C94880117
S11301400C9488010C9488010C9488010C94880107
S11301500C9488010C9488010C9488010C948801F7
S11301600C94C2010C9488010C9488010C948801AD
S11301700C9488010C9488010C9488010C948801D7
S11301800C9488010C9488010C9488010C948801C7
S11301900C9488010C9488010C9488010C948801B7
S11301A00C9488010C9488010C9488010C948801A7
S11301B00C9488010C9488010C9488010C94880197
S11301C00C9488010C9488010C9488010C94880187
S11301D00C9488010C9488010C9488010C94880177
S11301E00C9488010C9488010C9488010C94880167
S11301F00C9488010C9488010C9488010F02190254
S11302005902280232023C02590259025902590287
S11302105902590259025902590259025902590202
S113022059025902590259025902590259025902F2
S113023059025902590259025902590259025902E2
S113024059025902590259025902590259025902D2
S113025059025902590259025902590259020A0211
S113026059025902590237025902590259025902D4
S1130270590241024602590214024B021E022D0287
S113028059025902590223020C9441020C94280287
S11302900C9432020C9437020C9459020C941E02F2
S11302A00C944B020C9419020C942D020C943C02F5
S11302B00C940A020C940F020C9446020C94230230
S11302C00C94140211241FBECFEFCDBFDFE3DEBFB9
S11302D000E00CBF18BE19BE1ABE1BBE14E2A0E09B
S11302E0B0E2E0E5F8E000E00BBF02C007900D9239
S11302F0A230B107D9F71BBE24E2A2E0B4E201C0E8
S11303001D92A330B207E1F70E94A0010C942604C9
S11303100C9400008F9382E08093500080915100F0
S113032081FFFCCF88ED8093340081E0809340000E
S113033088ED8093340080E0809341008F9108958C
S1130340CF93DF93CDB7DEB70E948A010E94CD021E
S113035080E496E020E8FC01258380E496E020E830
S1130360FC0121830E9403030E945B030E94420359
S113037080E091E020E031E0F90120892068FC016F
S1130380208BF6CF1F920F9200903F000F92112402
S1130390009038000F9210923800009039000F92AC
S11303A01092390000903A000F9210923A00009097
S11303B03B000F9210923B002F933F934F935F9318
S11303C06F937F938F939F93AF93BF93EF93FF9319
S11303D0CF93DF93CDB7DEB7F8940E94B702809332
S11303E0022480910224882F90E0092E000CAA0B8D
S11303F0BB0B44E350E025E430E0841B950B281745
S1130400390708F456C0FC018827E250FF4F8F4F8C
S11304100C941D0487E790E00E9423034AC081E7FF
S113042090E00E94230345C08AE690E00E942303E3
S113043040C084E690E00E9423033BC08FE590E037
S11304400E94230336C089E590E00E94230331C053
S113045084E590E00E9423032CC080E590E00E9494
S1130460230327C08BE490E00E94230322C087E487
S113047090E00E9423031DC083E490E00E942303C4
S113048018C08FE390E00E94230313C08CE390E034
S11304900E9423030EC080910020813029F40E9421
S11304A0BC031092002005C00E945B0381E080938E
S11304B0002080E498E027E0FC0120837894000089
S11304C0DF91CF91FF91EF91BF91AF919F918F9168
S11304D07F916F915F914F913F912F910F90009277
S11304E03B000F9000923A000F90009239000F9059
S11304F0009238000F9000923F000F901F901895C3
S11305001F920F9200903F000F9211240090380028
S11305100F921092380000903A000F9210923A0015
S113052000903B000F9210923B008F939F93EF93A8
S1130530FF93CF93DF93CDB7DEB780E098E0FC0163
S113054010820000DF91CF91FF91EF919F918F91E5
S11305500F9000923B000F9000923A000F9000928F
S113056038000F9000923F000F901F901895CF9382
S1130570DF93CDB7DEB7000080EA99E0FC0181810A
S1130580882F90E080729927892BB1F380EA99E053
S1130590FC018081DF91CF910895CF93DF93CDB794
S11305A0DEB780E696E028E0FC01258380E696E04D
S11305B028E0FC01218380E696E024E0FC0122830C
S11305C080EA99E021E2FC01268380EA99E020EFA9
S11305D0FC01278380EA99E023E0FC01258380EA7B
S11305E099E028E1FC01248380EA90E021E0FC0109
S11305F02283789480EA99E020E1FC0123830000BF
S1130600DF91CF910895CF93DF93CDB7DEB780E02C
S113061096E028E0FC01218380E093E022E2FC01E3
S1130620218380E093E028E1FC01228380E093E0D1
S1130630FC01138280E093E029E0FC0120830000A8
S1130640DF91CF910895CF93DF931F921F92CDB77F
S1130650DEB789839A8380E891E020ECFC01208353
S113066080E098E029813A81FC0126A337A380E049
S113067098E021E0FC01208300000F900F90DF91AF
S1130680CF910895CF93DF93CDB7DEB780E498E0A0
S113069020E23EE4FC0126A337A380E498E021E0B5
S11306A0FC01268380EA90E021E0FC012283000023
S11306B0DF91CF910895CF93DF93CDB7DEB780E07C
S11306C091E020E031E0F90120812064FC012083E5
S11306D080E091E025E0FC01208B80E091E029E5B9
S11306E0FC01228B80E091E021E0FC01238B80E07F
S11306F091E020E032E0FC01248B358B80E091E036
S113070021E030E2FC01208F80E091E021E030E242
S1130710232F3327FC01218F20E031E081E090E298
S1130720CC01A0E0B0E0CD01AA27BB27F901828F5C
S113073080E091E02AE1FC01248F80E091E023E055
S1130740FC01258F80E091E0FC01168E80E091E0B1
S113075020E031E0F90120892068FC01208B80E051
S113076091E020E031E0F90120812068FC01208340
S11307700000DF91CF910895CF93DF93CDB7DEB71B
S113078080E091E020E031E0F90120812064FC0167
S1130790208380E091E025E0FC01208B80E091E063
S11307A029E5FC01228B80E091E021E0FC01238B10
S11307B080E091E020E032E0FC01248B358B80E086
S11307C091E021E032E2FC01208F80E091E021E021
S11307D032E2232F3327FC01218F20E031E081E036
S11307E092E2CC01A0E0B0E0CD01AA27BB27F90139
S11307F0828F80E091E02AE1FC01248F80E091E087
S113080023E0FC01258F80E091E0FC01168E80E05E
S113081091E020E031E0F90120892068FC01208B7F
S113082080E091E020E031E0F90120812068FC01C2
S113083020830000DF91CF910895EE0FFF1F881FE2
S11308408BBF0790F691E02D1BBE1994F894FFCF4F
S1130850010008320864089608C808FA082C095EE2
S1130860098F09C009F109220A520A820AB10AE071
S11308700A0F0B3D0B6B0B980BC50BF10B1C0C47B4
S11308800C710C9A0CC30CEB0C120D390D5F0D831B
S11308900DA70DCA0DED0D0E0E2E0E4E0E6C0E8A0A
S11308A00EA60EC10EDC0EF50E0D0F240F3A0F4FDF
S11308B00F630F760F870F980FA70FB50FC20FCDD9
S11308C00FD80FE10FE90FF00FF50FF90FFD0FFE31
S11308D00FFF0FFE0FFD0FF90FF50FF00FE90FE1FA
S11308E00FD80FCD0FC20FB50FA70F980F870F7634
S11308F00F630F4F0F3A0F240F0D0FF50EDC0EC1CF
S11309000EA60E8A0E6C0E4E0E2E0E0E0EED0DCA97
S11309100DA70D830D5F0D390D120DEB0CC30C9A51
S11309200C710C470C1C0CF10BC50B980B6B0B3D9D
S11309300B0F0BE00AB10A820A520A220AF109C01B
S1130940098F095E092C09FA08C808960864083258
S1130950080008CD079B07690737070507D306A1D9
S11309600670063F060E06DD05AD057D054E051F26
S113097005F004C204940467043A040E04E303B8C3
S1130980038E0365033C031403ED02C602A0027C3C
S113099002580235021202F101D101B1019301752D
S11309A00159013E0123010A01F200DB00C500B038
S11309B0009C0089007800670058004A003D00321E
S11309C00027001E0016000F000A000600020001A6
S11309D00000000100020006000A000F0016001EBD
S11309E000270032003D004A005800670078008963
S11309F0009C00B000C500DB00F2000A0123013EA8
S1130A0001590175019301B101D101F101120235BE
S1130A100258027C02A002C602ED0214033C0365E4
S1130A20038E03B803E3030E043A0467049404C278
S1130A3004F0041F054E057D05AD05DD050E063FDA
S1130A40067006A106D3060507370769079B07CD7D
S1130A500700003F007E00BC00F80034016E01A8CE
S1130A6001E101190250028702BC02F10225035878
S1130A70038A03BB03EC031C044B047904A704D4CA
S1130A800401052C0557058105AB05D405FC052497
S1130A90064B0672069806BD06E20606072A074DAF
S1130AA0076F079107B307D307F4071408330852F5
S1130AB00871088F08AC08C908E60802091E09393C
S1130AC00954096E098809A209BB09D409ED09056D
S1130AD00A1D0A340A4B0A620A780A8E0AA30AB962
S1130AE00ACE0AE20AF60A0A0B1E0B310B450B5713
S1130AF00B6A0B7C0B8E0B9F0BB10BC20BD30BE35E
S1130B000BF40B040C130C230C320C410C500C5F33
S1130B100C6D0C7B0C890C970CA50CB20CBF0CCC87
S1130B200CD90CE50CF10CFE0C0A0D150D210D2C45
S1130B300D370D420D4D0D580D630D6D0D770D8163
S1130B400D8B0D950D9E0DA80DB10DBA0DC30DCCD9
S1130B500DD50DDD0DE60DEE0DF60DFE0D060E0E9A
S1130B600E160E1E0E250E2C0E340E3B0E420E4992
S1130B700E4F0E560E5D0E630E6A0E700E760E7CD0
S1130B800E820E880E8E0E940E990E9F0EA40EAA3F
S1130B900EAF0EB40EB90EBE0EC30EC80ECD0ED2DD
S1130BA00ED60EDB0EDF0EE40EE80EED0EF10EF5A2
S1130BB00EF90EFD0E010F050F090F0D0F110F1485
S1130BC00F180F1C0F1F0F230F260F290F2D0F3087
S1130BD00F330F360F390F3C0F3F0F420F450F48AD
S1130BE00F4B0F4E0F510F530F560F590F5B0F5EE4
S1130BF00F600F630F650F670F6A0F6C0F6E0F7135
S1130C000F730F750F770F790F7B0F7D0F7F0F8198
S1130C100F830F850F870F890F8B0F8D0F8E0F900A
S1130C200F920F940F950F970F980F9A0F9C0F9D8B
S1130C300F9F0FA00FA20FA30FA50FA60FA70FA919
S1130C400FAA0FAB0FAD0FAE0FAF0FB00FB20FB3B4
S1050C500F008F
S9030000FC
